{
  "_format": "hh-sol-artifact-1",
  "contractName": "OmiiCertificate",
  "sourceName": "contracts/OmiiCertificate.sol",
  "abi": [
    {
      "inputs": [],
      "stateMutability": "nonpayable",
      "type": "constructor"
    },
    {
      "anonymous": false,
      "inputs": [
        {
          "indexed": true,
          "internalType": "address",
          "name": "owner",
          "type": "address"
        },
        {
          "indexed": true,
          "internalType": "address",
          "name": "approved",
          "type": "address"
        },
        {
          "indexed": true,
          "internalType": "uint256",
          "name": "tokenId",
          "type": "uint256"
        }
      ],
      "name": "Approval",
      "type": "event"
    },
    {
      "anonymous": false,
      "inputs": [
        {
          "indexed": true,
          "internalType": "address",
          "name": "owner",
          "type": "address"
        },
        {
          "indexed": true,
          "internalType": "address",
          "name": "operator",
          "type": "address"
        },
        {
          "indexed": false,
          "internalType": "bool",
          "name": "approved",
          "type": "bool"
        }
      ],
      "name": "ApprovalForAll",
      "type": "event"
    },
    {
      "anonymous": false,
      "inputs": [
        {
          "indexed": true,
          "internalType": "bytes32",
          "name": "role",
          "type": "bytes32"
        },
        {
          "indexed": true,
          "internalType": "bytes32",
          "name": "previousAdminRole",
          "type": "bytes32"
        },
        {
          "indexed": true,
          "internalType": "bytes32",
          "name": "newAdminRole",
          "type": "bytes32"
        }
      ],
      "name": "RoleAdminChanged",
      "type": "event"
    },
    {
      "anonymous": false,
      "inputs": [
        {
          "indexed": true,
          "internalType": "bytes32",
          "name": "role",
          "type": "bytes32"
        },
        {
          "indexed": true,
          "internalType": "address",
          "name": "account",
          "type": "address"
        },
        {
          "indexed": true,
          "internalType": "address",
          "name": "sender",
          "type": "address"
        }
      ],
      "name": "RoleGranted",
      "type": "event"
    },
    {
      "anonymous": false,
      "inputs": [
        {
          "indexed": true,
          "internalType": "bytes32",
          "name": "role",
          "type": "bytes32"
        },
        {
          "indexed": true,
          "internalType": "address",
          "name": "account",
          "type": "address"
        },
        {
          "indexed": true,
          "internalType": "address",
          "name": "sender",
          "type": "address"
        }
      ],
      "name": "RoleRevoked",
      "type": "event"
    },
    {
      "anonymous": false,
      "inputs": [
        {
          "indexed": true,
          "internalType": "address",
          "name": "from",
          "type": "address"
        },
        {
          "indexed": true,
          "internalType": "address",
          "name": "to",
          "type": "address"
        },
        {
          "indexed": true,
          "internalType": "uint256",
          "name": "tokenId",
          "type": "uint256"
        }
      ],
      "name": "Transfer",
      "type": "event"
    },
    {
      "inputs": [],
      "name": "DEFAULT_ADMIN_ROLE",
      "outputs": [
        {
          "internalType": "bytes32",
          "name": "",
          "type": "bytes32"
        }
      ],
      "stateMutability": "view",
      "type": "function"
    },
    {
      "inputs": [],
      "name": "MINTER_ROLE",
      "outputs": [
        {
          "internalType": "bytes32",
          "name": "",
          "type": "bytes32"
        }
      ],
      "stateMutability": "view",
      "type": "function"
    },
    {
      "inputs": [
        {
          "internalType": "address",
          "name": "to",
          "type": "address"
        },
        {
          "internalType": "uint256",
          "name": "tokenId",
          "type": "uint256"
        }
      ],
      "name": "approve",
      "outputs": [],
      "stateMutability": "nonpayable",
      "type": "function"
    },
    {
      "inputs": [
        {
          "internalType": "address",
          "name": "to",
          "type": "address"
        },
        {
          "internalType": "uint256",
          "name": "vintageTokenId",
          "type": "uint256"
        },
        {
          "internalType": "string",
          "name": "uri",
          "type": "string"
        },
        {
          "internalType": "bool",
          "name": "verified",
          "type": "bool"
        }
      ],
      "name": "awardCertificate",
      "outputs": [
        {
          "internalType": "uint256",
          "name": "",
          "type": "uint256"
        }
      ],
      "stateMutability": "nonpayable",
      "type": "function"
    },
    {
      "inputs": [
        {
          "internalType": "address",
          "name": "owner",
          "type": "address"
        }
      ],
      "name": "balanceOf",
      "outputs": [
        {
          "internalType": "uint256",
          "name": "",
          "type": "uint256"
        }
      ],
      "stateMutability": "view",
      "type": "function"
    },
    {
      "inputs": [
        {
          "internalType": "uint256",
          "name": "",
          "type": "uint256"
        }
      ],
      "name": "certificateData",
      "outputs": [
        {
          "internalType": "uint256",
          "name": "vintageTokenId",
          "type": "uint256"
        },
        {
          "internalType": "bool",
          "name": "verified",
          "type": "bool"
        },
        {
          "internalType": "string",
          "name": "uri",
          "type": "string"
        }
      ],
      "stateMutability": "view",
      "type": "function"
    },
    {
      "inputs": [
        {
          "internalType": "uint256",
          "name": "tokenId",
          "type": "uint256"
        }
      ],
      "name": "getApproved",
      "outputs": [
        {
          "internalType": "address",
          "name": "",
          "type": "address"
        }
      ],
      "stateMutability": "view",
      "type": "function"
    },
    {
      "inputs": [
        {
          "internalType": "bytes32",
          "name": "role",
          "type": "bytes32"
        }
      ],
      "name": "getRoleAdmin",
      "outputs": [
        {
          "internalType": "bytes32",
          "name": "",
          "type": "bytes32"
        }
      ],
      "stateMutability": "view",
      "type": "function"
    },
    {
      "inputs": [
        {
          "internalType": "bytes32",
          "name": "role",
          "type": "bytes32"
        },
        {
          "internalType": "address",
          "name": "account",
          "type": "address"
        }
      ],
      "name": "grantRole",
      "outputs": [],
      "stateMutability": "nonpayable",
      "type": "function"
    },
    {
      "inputs": [
        {
          "internalType": "bytes32",
          "name": "role",
          "type": "bytes32"
        },
        {
          "internalType": "address",
          "name": "account",
          "type": "address"
        }
      ],
      "name": "hasRole",
      "outputs": [
        {
          "internalType": "bool",
          "name": "",
          "type": "bool"
        }
      ],
      "stateMutability": "view",
      "type": "function"
    },
    {
      "inputs": [
        {
          "internalType": "address",
          "name": "owner",
          "type": "address"
        },
        {
          "internalType": "address",
          "name": "operator",
          "type": "address"
        }
      ],
      "name": "isApprovedForAll",
      "outputs": [
        {
          "internalType": "bool",
          "name": "",
          "type": "bool"
        }
      ],
      "stateMutability": "view",
      "type": "function"
    },
    {
      "inputs": [],
      "name": "name",
      "outputs": [
        {
          "internalType": "string",
          "name": "",
          "type": "string"
        }
      ],
      "stateMutability": "view",
      "type": "function"
    },
    {
      "inputs": [
        {
          "internalType": "uint256",
          "name": "tokenId",
          "type": "uint256"
        }
      ],
      "name": "ownerOf",
      "outputs": [
        {
          "internalType": "address",
          "name": "",
          "type": "address"
        }
      ],
      "stateMutability": "view",
      "type": "function"
    },
    {
      "inputs": [
        {
          "internalType": "bytes32",
          "name": "role",
          "type": "bytes32"
        },
        {
          "internalType": "address",
          "name": "account",
          "type": "address"
        }
      ],
      "name": "renounceRole",
      "outputs": [],
      "stateMutability": "nonpayable",
      "type": "function"
    },
    {
      "inputs": [
        {
          "internalType": "bytes32",
          "name": "role",
          "type": "bytes32"
        },
        {
          "internalType": "address",
          "name": "account",
          "type": "address"
        }
      ],
      "name": "revokeRole",
      "outputs": [],
      "stateMutability": "nonpayable",
      "type": "function"
    },
    {
      "inputs": [
        {
          "internalType": "address",
          "name": "from",
          "type": "address"
        },
        {
          "internalType": "address",
          "name": "to",
          "type": "address"
        },
        {
          "internalType": "uint256",
          "name": "tokenId",
          "type": "uint256"
        }
      ],
      "name": "safeTransferFrom",
      "outputs": [],
      "stateMutability": "nonpayable",
      "type": "function"
    },
    {
      "inputs": [
        {
          "internalType": "address",
          "name": "from",
          "type": "address"
        },
        {
          "internalType": "address",
          "name": "to",
          "type": "address"
        },
        {
          "internalType": "uint256",
          "name": "tokenId",
          "type": "uint256"
        },
        {
          "internalType": "bytes",
          "name": "_data",
          "type": "bytes"
        }
      ],
      "name": "safeTransferFrom",
      "outputs": [],
      "stateMutability": "nonpayable",
      "type": "function"
    },
    {
      "inputs": [
        {
          "internalType": "address",
          "name": "operator",
          "type": "address"
        },
        {
          "internalType": "bool",
          "name": "approved",
          "type": "bool"
        }
      ],
      "name": "setApprovalForAll",
      "outputs": [],
      "stateMutability": "nonpayable",
      "type": "function"
    },
    {
      "inputs": [
        {
          "internalType": "bytes4",
          "name": "interfaceId",
          "type": "bytes4"
        }
      ],
      "name": "supportsInterface",
      "outputs": [
        {
          "internalType": "bool",
          "name": "",
          "type": "bool"
        }
      ],
      "stateMutability": "view",
      "type": "function"
    },
    {
      "inputs": [],
      "name": "symbol",
      "outputs": [
        {
          "internalType": "string",
          "name": "",
          "type": "string"
        }
      ],
      "stateMutability": "view",
      "type": "function"
    },
    {
      "inputs": [
        {
          "internalType": "uint256",
          "name": "tokenId",
          "type": "uint256"
        }
      ],
      "name": "tokenURI",
      "outputs": [
        {
          "internalType": "string",
          "name": "",
          "type": "string"
        }
      ],
      "stateMutability": "view",
      "type": "function"
    },
    {
      "inputs": [
        {
          "internalType": "address",
          "name": "from",
          "type": "address"
        },
        {
          "internalType": "address",
          "name": "to",
          "type": "address"
        },
        {
          "internalType": "uint256",
          "name": "tokenId",
          "type": "uint256"
        }
      ],
      "name": "transferFrom",
      "outputs": [],
      "stateMutability": "nonpayable",
      "type": "function"
    }
  ],
  "bytecode": "0x60806040523480156200001157600080fd5b506040518060400160405280601081526020017f4f6d6969204365727469666963617465000000000000000000000000000000008152506040518060400160405280600481526020017f4f4d4949000000000000000000000000000000000000000000000000000000008152508160009080519060200190620000969291906200024f565b508060019080519060200190620000af9291906200024f565b505050620000e47f9f2df0fed2c77648de5860a4cc508cd0818c85b8b8a1ab4ceeef8d981c8956a633620000ea60201b60201c565b62000364565b620000fc8282620001dc60201b60201c565b620001d85760016006600084815260200190815260200160002060000160008373ffffffffffffffffffffffffffffffffffffffff1673ffffffffffffffffffffffffffffffffffffffff16815260200190815260200160002060006101000a81548160ff0219169083151502179055506200017d6200024760201b60201c565b73ffffffffffffffffffffffffffffffffffffffff168173ffffffffffffffffffffffffffffffffffffffff16837f2f8788117e7eff1d82e926ec794901d17c78024a50270940304540a733656f0d60405160405180910390a45b5050565b60006006600084815260200190815260200160002060000160008373ffffffffffffffffffffffffffffffffffffffff1673ffffffffffffffffffffffffffffffffffffffff16815260200190815260200160002060009054906101000a900460ff16905092915050565b600033905090565b8280546200025d90620002ff565b90600052602060002090601f016020900481019282620002815760008555620002cd565b82601f106200029c57805160ff1916838001178555620002cd565b82800160010185558215620002cd579182015b82811115620002cc578251825591602001919060010190620002af565b5b509050620002dc9190620002e0565b5090565b5b80821115620002fb576000816000905550600101620002e1565b5090565b600060028204905060018216806200031857607f821691505b602082108114156200032f576200032e62000335565b5b50919050565b7f4e487b7100000000000000000000000000000000000000000000000000000000600052602260045260246000fd5b61373f80620003746000396000f3fe608060405234801561001057600080fd5b50600436106101425760003560e01c80638024818a116100b8578063aea9ec1b1161007c578063aea9ec1b1461039b578063b88d4fde146103cb578063c87b56dd146103e7578063d539139314610417578063d547741f14610435578063e985e9c51461045157610142565b80638024818a146102e157806391d148541461031357806395d89b4114610343578063a217fddf14610361578063a22cb4651461037f57610142565b8063248a9ca31161010a578063248a9ca3146101fd5780632f2ff15d1461022d57806336568abe1461024957806342842e0e146102655780636352211e1461028157806370a08231146102b157610142565b806301ffc9a71461014757806306fdde0314610177578063081812fc14610195578063095ea7b3146101c557806323b872dd146101e1575b600080fd5b610161600480360381019061015c91906125a1565b610481565b60405161016e9190612a59565b60405180910390f35b61017f610493565b60405161018c9190612a8f565b60405180910390f35b6101af60048036038101906101aa91906125f3565b610525565b6040516101bc91906129f2565b60405180910390f35b6101df60048036038101906101da9190612485565b6105aa565b005b6101fb60048036038101906101f6919061237f565b6106c2565b005b6102176004803603810190610212919061253c565b610722565b6040516102249190612a74565b60405180910390f35b61024760048036038101906102429190612565565b610742565b005b610263600480360381019061025e9190612565565b61076b565b005b61027f600480360381019061027a919061237f565b6107ee565b005b61029b600480360381019061029691906125f3565b61080e565b6040516102a891906129f2565b60405180910390f35b6102cb60048036038101906102c6919061231a565b6108c0565b6040516102d89190612cd1565b60405180910390f35b6102fb60048036038101906102f691906125f3565b610978565b60405161030a93929190612cec565b60405180910390f35b61032d60048036038101906103289190612565565b610a37565b60405161033a9190612a59565b60405180910390f35b61034b610aa2565b6040516103589190612a8f565b60405180910390f35b610369610b34565b6040516103769190612a74565b60405180910390f35b61039960048036038101906103949190612449565b610b3b565b005b6103b560048036038101906103b091906124c1565b610b51565b6040516103c29190612cd1565b60405180910390f35b6103e560048036038101906103e091906123ce565b610c5e565b005b61040160048036038101906103fc91906125f3565b610cc0565b60405161040e9190612a8f565b60405180910390f35b61041f610d67565b60405161042c9190612a74565b60405180910390f35b61044f600480360381019061044a9190612565565b610d8b565b005b61046b60048036038101906104669190612343565b610db4565b6040516104789190612a59565b60405180910390f35b600061048c82610e48565b9050919050565b6060600080546104a290612ff3565b80601f01602080910402602001604051908101604052809291908181526020018280546104ce90612ff3565b801561051b5780601f106104f05761010080835404028352916020019161051b565b820191906000526020600020905b8154815290600101906020018083116104fe57829003601f168201915b5050505050905090565b600061053082610ec2565b61056f576040517f08c379a000000000000000000000000000000000000000000000000000000000815260040161056690612c11565b60405180910390fd5b6004600083815260200190815260200160002060009054906101000a900473ffffffffffffffffffffffffffffffffffffffff169050919050565b60006105b58261080e565b90508073ffffffffffffffffffffffffffffffffffffffff168373ffffffffffffffffffffffffffffffffffffffff161415610626576040517f08c379a000000000000000000000000000000000000000000000000000000000815260040161061d90612c51565b60405180910390fd5b8073ffffffffffffffffffffffffffffffffffffffff16610645610f2e565b73ffffffffffffffffffffffffffffffffffffffff16148061067457506106738161066e610f2e565b610db4565b5b6106b3576040517f08c379a00000000000000000000000000000000000000000000000000000000081526004016106aa90612b91565b60405180910390fd5b6106bd8383610f36565b505050565b6106d36106cd610f2e565b82610fef565b610712576040517f08c379a000000000000000000000000000000000000000000000000000000000815260040161070990612c71565b60405180910390fd5b61071d8383836110cd565b505050565b600060066000838152602001908152602001600020600101549050919050565b61074b82610722565b61075c81610757610f2e565b611334565b61076683836113d1565b505050565b610773610f2e565b73ffffffffffffffffffffffffffffffffffffffff168173ffffffffffffffffffffffffffffffffffffffff16146107e0576040517f08c379a00000000000000000000000000000000000000000000000000000000081526004016107d790612cb1565b60405180910390fd5b6107ea82826114b2565b5050565b61080983838360405180602001604052806000815250610c5e565b505050565b6000806002600084815260200190815260200160002060009054906101000a900473ffffffffffffffffffffffffffffffffffffffff169050600073ffffffffffffffffffffffffffffffffffffffff168173ffffffffffffffffffffffffffffffffffffffff1614156108b7576040517f08c379a00000000000000000000000000000000000000000000000000000000081526004016108ae90612bd1565b60405180910390fd5b80915050919050565b60008073ffffffffffffffffffffffffffffffffffffffff168273ffffffffffffffffffffffffffffffffffffffff161415610931576040517f08c379a000000000000000000000000000000000000000000000000000000000815260040161092890612bb1565b60405180910390fd5b600360008373ffffffffffffffffffffffffffffffffffffffff1673ffffffffffffffffffffffffffffffffffffffff168152602001908152602001600020549050919050565b60086020528060005260406000206000915090508060000154908060010160009054906101000a900460ff16908060020180546109b490612ff3565b80601f01602080910402602001604051908101604052809291908181526020018280546109e090612ff3565b8015610a2d5780601f10610a0257610100808354040283529160200191610a2d565b820191906000526020600020905b815481529060010190602001808311610a1057829003601f168201915b5050505050905083565b60006006600084815260200190815260200160002060000160008373ffffffffffffffffffffffffffffffffffffffff1673ffffffffffffffffffffffffffffffffffffffff16815260200190815260200160002060009054906101000a900460ff16905092915050565b606060018054610ab190612ff3565b80601f0160208091040260200160405190810160405280929190818152602001828054610add90612ff3565b8015610b2a5780601f10610aff57610100808354040283529160200191610b2a565b820191906000526020600020905b815481529060010190602001808311610b0d57829003601f168201915b5050505050905090565b6000801b81565b610b4d610b46610f2e565b8383611594565b5050565b6000610b7d7f9f2df0fed2c77648de5860a4cc508cd0818c85b8b8a1ab4ceeef8d981c8956a633610a37565b610bbc576040517f08c379a0000000000000000000000000000000000000000000000000000000008152600401610bb390612c91565b60405180910390fd5b610bc66007611701565b6000610bd26007611717565b9050610bde8682611725565b84600860008381526020019081526020016000206000018190555083600860008381526020019081526020016000206002019080519060200190610c23929190612129565b50826008600083815260200190815260200160002060010160006101000a81548160ff02191690831515021790555080915050949350505050565b610c6f610c69610f2e565b83610fef565b610cae576040517f08c379a0000000000000000000000000000000000000000000000000000000008152600401610ca590612c71565b60405180910390fd5b610cba848484846118ff565b50505050565b6060610ccb82610ec2565b610d0a576040517f08c379a0000000000000000000000000000000000000000000000000000000008152600401610d0190612c31565b60405180910390fd5b6000610d1461195b565b90506000815111610d345760405180602001604052806000815250610d5f565b80610d3e84611972565b604051602001610d4f929190612994565b6040516020818303038152906040525b915050919050565b7f9f2df0fed2c77648de5860a4cc508cd0818c85b8b8a1ab4ceeef8d981c8956a681565b610d9482610722565b610da581610da0610f2e565b611334565b610daf83836114b2565b505050565b6000600560008473ffffffffffffffffffffffffffffffffffffffff1673ffffffffffffffffffffffffffffffffffffffff16815260200190815260200160002060008373ffffffffffffffffffffffffffffffffffffffff1673ffffffffffffffffffffffffffffffffffffffff16815260200190815260200160002060009054906101000a900460ff16905092915050565b60007f7965db0b000000000000000000000000000000000000000000000000000000007bffffffffffffffffffffffffffffffffffffffffffffffffffffffff1916827bffffffffffffffffffffffffffffffffffffffffffffffffffffffff19161480610ebb5750610eba82611b1f565b5b9050919050565b60008073ffffffffffffffffffffffffffffffffffffffff166002600084815260200190815260200160002060009054906101000a900473ffffffffffffffffffffffffffffffffffffffff1673ffffffffffffffffffffffffffffffffffffffff1614159050919050565b600033905090565b816004600083815260200190815260200160002060006101000a81548173ffffffffffffffffffffffffffffffffffffffff021916908373ffffffffffffffffffffffffffffffffffffffff160217905550808273ffffffffffffffffffffffffffffffffffffffff16610fa98361080e565b73ffffffffffffffffffffffffffffffffffffffff167f8c5be1e5ebec7d5bd14f71427d1e84f3dd0314c0f7b2291e5b200ac8c7c3b92560405160405180910390a45050565b6000610ffa82610ec2565b611039576040517f08c379a000000000000000000000000000000000000000000000000000000000815260040161103090612b71565b60405180910390fd5b60006110448361080e565b90508073ffffffffffffffffffffffffffffffffffffffff168473ffffffffffffffffffffffffffffffffffffffff1614806110b357508373ffffffffffffffffffffffffffffffffffffffff1661109b84610525565b73ffffffffffffffffffffffffffffffffffffffff16145b806110c457506110c38185610db4565b5b91505092915050565b8273ffffffffffffffffffffffffffffffffffffffff166110ed8261080e565b73ffffffffffffffffffffffffffffffffffffffff1614611143576040517f08c379a000000000000000000000000000000000000000000000000000000000815260040161113a90612af1565b60405180910390fd5b600073ffffffffffffffffffffffffffffffffffffffff168273ffffffffffffffffffffffffffffffffffffffff1614156111b3576040517f08c379a00000000000000000000000000000000000000000000000000000000081526004016111aa90612b31565b60405180910390fd5b6111be838383611c01565b6111c9600082610f36565b6001600360008573ffffffffffffffffffffffffffffffffffffffff1673ffffffffffffffffffffffffffffffffffffffff16815260200190815260200160002060008282546112199190612ed5565b925050819055506001600360008473ffffffffffffffffffffffffffffffffffffffff1673ffffffffffffffffffffffffffffffffffffffff16815260200190815260200160002060008282546112709190612df4565b92505081905550816002600083815260200190815260200160002060006101000a81548173ffffffffffffffffffffffffffffffffffffffff021916908373ffffffffffffffffffffffffffffffffffffffff160217905550808273ffffffffffffffffffffffffffffffffffffffff168473ffffffffffffffffffffffffffffffffffffffff167fddf252ad1be2c89b69c2b068fc378daa952ba7f163c4a11628f55a4df523b3ef60405160405180910390a461132f838383611c06565b505050565b61133e8282610a37565b6113cd576113638173ffffffffffffffffffffffffffffffffffffffff166014611c0b565b6113718360001c6020611c0b565b6040516020016113829291906129b8565b6040516020818303038152906040526040517f08c379a00000000000000000000000000000000000000000000000000000000081526004016113c49190612a8f565b60405180910390fd5b5050565b6113db8282610a37565b6114ae5760016006600084815260200190815260200160002060000160008373ffffffffffffffffffffffffffffffffffffffff1673ffffffffffffffffffffffffffffffffffffffff16815260200190815260200160002060006101000a81548160ff021916908315150217905550611453610f2e565b73ffffffffffffffffffffffffffffffffffffffff168173ffffffffffffffffffffffffffffffffffffffff16837f2f8788117e7eff1d82e926ec794901d17c78024a50270940304540a733656f0d60405160405180910390a45b5050565b6114bc8282610a37565b156115905760006006600084815260200190815260200160002060000160008373ffffffffffffffffffffffffffffffffffffffff1673ffffffffffffffffffffffffffffffffffffffff16815260200190815260200160002060006101000a81548160ff021916908315150217905550611535610f2e565b73ffffffffffffffffffffffffffffffffffffffff168173ffffffffffffffffffffffffffffffffffffffff16837ff6391f5c32d9c69d2a47ea670b442974b53935d1edc7fd64eb21e047a839171b60405160405180910390a45b5050565b8173ffffffffffffffffffffffffffffffffffffffff168373ffffffffffffffffffffffffffffffffffffffff161415611603576040517f08c379a00000000000000000000000000000000000000000000000000000000081526004016115fa90612b51565b60405180910390fd5b80600560008573ffffffffffffffffffffffffffffffffffffffff1673ffffffffffffffffffffffffffffffffffffffff16815260200190815260200160002060008473ffffffffffffffffffffffffffffffffffffffff1673ffffffffffffffffffffffffffffffffffffffff16815260200190815260200160002060006101000a81548160ff0219169083151502179055508173ffffffffffffffffffffffffffffffffffffffff168373ffffffffffffffffffffffffffffffffffffffff167f17307eab39ab6107e8899845ad3d59bd9653f200f220920489ca2b5937696c31836040516116f49190612a59565b60405180910390a3505050565b6001816000016000828254019250508190555050565b600081600001549050919050565b600073ffffffffffffffffffffffffffffffffffffffff168273ffffffffffffffffffffffffffffffffffffffff161415611795576040517f08c379a000000000000000000000000000000000000000000000000000000000815260040161178c90612bf1565b60405180910390fd5b61179e81610ec2565b156117de576040517f08c379a00000000000000000000000000000000000000000000000000000000081526004016117d590612b11565b60405180910390fd5b6117ea60008383611c01565b6001600360008473ffffffffffffffffffffffffffffffffffffffff1673ffffffffffffffffffffffffffffffffffffffff168152602001908152602001600020600082825461183a9190612df4565b92505081905550816002600083815260200190815260200160002060006101000a81548173ffffffffffffffffffffffffffffffffffffffff021916908373ffffffffffffffffffffffffffffffffffffffff160217905550808273ffffffffffffffffffffffffffffffffffffffff16600073ffffffffffffffffffffffffffffffffffffffff167fddf252ad1be2c89b69c2b068fc378daa952ba7f163c4a11628f55a4df523b3ef60405160405180910390a46118fb60008383611c06565b5050565b61190a8484846110cd565b61191684848484611f05565b611955576040517f08c379a000000000000000000000000000000000000000000000000000000000815260040161194c90612ad1565b60405180910390fd5b50505050565b606060405180602001604052806000815250905090565b606060008214156119ba576040518060400160405280600181526020017f30000000000000000000000000000000000000000000000000000000000000008152509050611b1a565b600082905060005b600082146119ec5780806119d590613056565b915050600a826119e59190612e4a565b91506119c2565b60008167ffffffffffffffff811115611a2e577f4e487b7100000000000000000000000000000000000000000000000000000000600052604160045260246000fd5b6040519080825280601f01601f191660200182016040528015611a605781602001600182028036833780820191505090505b5090505b60008514611b1357600182611a799190612ed5565b9150600a85611a88919061309f565b6030611a949190612df4565b60f81b818381518110611ad0577f4e487b7100000000000000000000000000000000000000000000000000000000600052603260045260246000fd5b60200101907effffffffffffffffffffffffffffffffffffffffffffffffffffffffffffff1916908160001a905350600a85611b0c9190612e4a565b9450611a64565b8093505050505b919050565b60007f80ac58cd000000000000000000000000000000000000000000000000000000007bffffffffffffffffffffffffffffffffffffffffffffffffffffffff1916827bffffffffffffffffffffffffffffffffffffffffffffffffffffffff19161480611bea57507f5b5e139f000000000000000000000000000000000000000000000000000000007bffffffffffffffffffffffffffffffffffffffffffffffffffffffff1916827bffffffffffffffffffffffffffffffffffffffffffffffffffffffff1916145b80611bfa5750611bf98261209c565b5b9050919050565b505050565b505050565b606060006002836002611c1e9190612e7b565b611c289190612df4565b67ffffffffffffffff811115611c67577f4e487b7100000000000000000000000000000000000000000000000000000000600052604160045260246000fd5b6040519080825280601f01601f191660200182016040528015611c995781602001600182028036833780820191505090505b5090507f300000000000000000000000000000000000000000000000000000000000000081600081518110611cf7577f4e487b7100000000000000000000000000000000000000000000000000000000600052603260045260246000fd5b60200101907effffffffffffffffffffffffffffffffffffffffffffffffffffffffffffff1916908160001a9053507f780000000000000000000000000000000000000000000000000000000000000081600181518110611d81577f4e487b7100000000000000000000000000000000000000000000000000000000600052603260045260246000fd5b60200101907effffffffffffffffffffffffffffffffffffffffffffffffffffffffffffff1916908160001a90535060006001846002611dc19190612e7b565b611dcb9190612df4565b90505b6001811115611eb7577f3031323334353637383961626364656600000000000000000000000000000000600f861660108110611e33577f4e487b7100000000000000000000000000000000000000000000000000000000600052603260045260246000fd5b1a60f81b828281518110611e70577f4e487b7100000000000000000000000000000000000000000000000000000000600052603260045260246000fd5b60200101907effffffffffffffffffffffffffffffffffffffffffffffffffffffffffffff1916908160001a905350600485901c945080611eb090612fc9565b9050611dce565b5060008414611efb576040517f08c379a0000000000000000000000000000000000000000000000000000000008152600401611ef290612ab1565b60405180910390fd5b8091505092915050565b6000611f268473ffffffffffffffffffffffffffffffffffffffff16612106565b1561208f578373ffffffffffffffffffffffffffffffffffffffff1663150b7a02611f4f610f2e565b8786866040518563ffffffff1660e01b8152600401611f719493929190612a0d565b602060405180830381600087803b158015611f8b57600080fd5b505af1925050508015611fbc57506040513d601f19601f82011682018060405250810190611fb991906125ca565b60015b61203f573d8060008114611fec576040519150601f19603f3d011682016040523d82523d6000602084013e611ff1565b606091505b50600081511415612037576040517f08c379a000000000000000000000000000000000000000000000000000000000815260040161202e90612ad1565b60405180910390fd5b805181602001fd5b63150b7a0260e01b7bffffffffffffffffffffffffffffffffffffffffffffffffffffffff1916817bffffffffffffffffffffffffffffffffffffffffffffffffffffffff191614915050612094565b600190505b949350505050565b60007f01ffc9a7000000000000000000000000000000000000000000000000000000007bffffffffffffffffffffffffffffffffffffffffffffffffffffffff1916827bffffffffffffffffffffffffffffffffffffffffffffffffffffffff1916149050919050565b6000808273ffffffffffffffffffffffffffffffffffffffff163b119050919050565b82805461213590612ff3565b90600052602060002090601f016020900481019282612157576000855561219e565b82601f1061217057805160ff191683800117855561219e565b8280016001018555821561219e579182015b8281111561219d578251825591602001919060010190612182565b5b5090506121ab91906121af565b5090565b5b808211156121c85760008160009055506001016121b0565b5090565b60006121df6121da84612d4f565b612d2a565b9050828152602081018484840111156121f757600080fd5b612202848285612f87565b509392505050565b600061221d61221884612d80565b612d2a565b90508281526020810184848401111561223557600080fd5b612240848285612f87565b509392505050565b60008135905061225781613696565b92915050565b60008135905061226c816136ad565b92915050565b600081359050612281816136c4565b92915050565b600081359050612296816136db565b92915050565b6000815190506122ab816136db565b92915050565b600082601f8301126122c257600080fd5b81356122d28482602086016121cc565b91505092915050565b600082601f8301126122ec57600080fd5b81356122fc84826020860161220a565b91505092915050565b600081359050612314816136f2565b92915050565b60006020828403121561232c57600080fd5b600061233a84828501612248565b91505092915050565b6000806040838503121561235657600080fd5b600061236485828601612248565b925050602061237585828601612248565b9150509250929050565b60008060006060848603121561239457600080fd5b60006123a286828701612248565b93505060206123b386828701612248565b92505060406123c486828701612305565b9150509250925092565b600080600080608085870312156123e457600080fd5b60006123f287828801612248565b945050602061240387828801612248565b935050604061241487828801612305565b925050606085013567ffffffffffffffff81111561243157600080fd5b61243d878288016122b1565b91505092959194509250565b6000806040838503121561245c57600080fd5b600061246a85828601612248565b925050602061247b8582860161225d565b9150509250929050565b6000806040838503121561249857600080fd5b60006124a685828601612248565b92505060206124b785828601612305565b9150509250929050565b600080600080608085870312156124d757600080fd5b60006124e587828801612248565b94505060206124f687828801612305565b935050604085013567ffffffffffffffff81111561251357600080fd5b61251f878288016122db565b92505060606125308782880161225d565b91505092959194509250565b60006020828403121561254e57600080fd5b600061255c84828501612272565b91505092915050565b6000806040838503121561257857600080fd5b600061258685828601612272565b925050602061259785828601612248565b9150509250929050565b6000602082840312156125b357600080fd5b60006125c184828501612287565b91505092915050565b6000602082840312156125dc57600080fd5b60006125ea8482850161229c565b91505092915050565b60006020828403121561260557600080fd5b600061261384828501612305565b91505092915050565b61262581612f09565b82525050565b61263481612f1b565b82525050565b61264381612f27565b82525050565b600061265482612db1565b61265e8185612dc7565b935061266e818560208601612f96565b6126778161318c565b840191505092915050565b600061268d82612dbc565b6126978185612dd8565b93506126a7818560208601612f96565b6126b08161318c565b840191505092915050565b60006126c682612dbc565b6126d08185612de9565b93506126e0818560208601612f96565b80840191505092915050565b60006126f9602083612dd8565b91506127048261319d565b602082019050919050565b600061271c603283612dd8565b9150612727826131c6565b604082019050919050565b600061273f602583612dd8565b915061274a82613215565b604082019050919050565b6000612762601c83612dd8565b915061276d82613264565b602082019050919050565b6000612785602483612dd8565b91506127908261328d565b604082019050919050565b60006127a8601983612dd8565b91506127b3826132dc565b602082019050919050565b60006127cb602c83612dd8565b91506127d682613305565b604082019050919050565b60006127ee603883612dd8565b91506127f982613354565b604082019050919050565b6000612811602a83612dd8565b915061281c826133a3565b604082019050919050565b6000612834602983612dd8565b915061283f826133f2565b604082019050919050565b6000612857602083612dd8565b915061286282613441565b602082019050919050565b600061287a602c83612dd8565b91506128858261346a565b604082019050919050565b600061289d602f83612dd8565b91506128a8826134b9565b604082019050919050565b60006128c0602183612dd8565b91506128cb82613508565b604082019050919050565b60006128e3603183612dd8565b91506128ee82613557565b604082019050919050565b6000612906601783612de9565b9150612911826135a6565b601782019050919050565b6000612929603383612dd8565b9150612934826135cf565b604082019050919050565b600061294c601183612de9565b91506129578261361e565b601182019050919050565b600061296f602f83612dd8565b915061297a82613647565b604082019050919050565b61298e81612f7d565b82525050565b60006129a082856126bb565b91506129ac82846126bb565b91508190509392505050565b60006129c3826128f9565b91506129cf82856126bb565b91506129da8261293f565b91506129e682846126bb565b91508190509392505050565b6000602082019050612a07600083018461261c565b92915050565b6000608082019050612a22600083018761261c565b612a2f602083018661261c565b612a3c6040830185612985565b8181036060830152612a4e8184612649565b905095945050505050565b6000602082019050612a6e600083018461262b565b92915050565b6000602082019050612a89600083018461263a565b92915050565b60006020820190508181036000830152612aa98184612682565b905092915050565b60006020820190508181036000830152612aca816126ec565b9050919050565b60006020820190508181036000830152612aea8161270f565b9050919050565b60006020820190508181036000830152612b0a81612732565b9050919050565b60006020820190508181036000830152612b2a81612755565b9050919050565b60006020820190508181036000830152612b4a81612778565b9050919050565b60006020820190508181036000830152612b6a8161279b565b9050919050565b60006020820190508181036000830152612b8a816127be565b9050919050565b60006020820190508181036000830152612baa816127e1565b9050919050565b60006020820190508181036000830152612bca81612804565b9050919050565b60006020820190508181036000830152612bea81612827565b9050919050565b60006020820190508181036000830152612c0a8161284a565b9050919050565b60006020820190508181036000830152612c2a8161286d565b9050919050565b60006020820190508181036000830152612c4a81612890565b9050919050565b60006020820190508181036000830152612c6a816128b3565b9050919050565b60006020820190508181036000830152612c8a816128d6565b9050919050565b60006020820190508181036000830152612caa8161291c565b9050919050565b60006020820190508181036000830152612cca81612962565b9050919050565b6000602082019050612ce66000830184612985565b92915050565b6000606082019050612d016000830186612985565b612d0e602083018561262b565b8181036040830152612d208184612682565b9050949350505050565b6000612d34612d45565b9050612d408282613025565b919050565b6000604051905090565b600067ffffffffffffffff821115612d6a57612d6961315d565b5b612d738261318c565b9050602081019050919050565b600067ffffffffffffffff821115612d9b57612d9a61315d565b5b612da48261318c565b9050602081019050919050565b600081519050919050565b600081519050919050565b600082825260208201905092915050565b600082825260208201905092915050565b600081905092915050565b6000612dff82612f7d565b9150612e0a83612f7d565b9250827fffffffffffffffffffffffffffffffffffffffffffffffffffffffffffffffff03821115612e3f57612e3e6130d0565b5b828201905092915050565b6000612e5582612f7d565b9150612e6083612f7d565b925082612e7057612e6f6130ff565b5b828204905092915050565b6000612e8682612f7d565b9150612e9183612f7d565b9250817fffffffffffffffffffffffffffffffffffffffffffffffffffffffffffffffff0483118215151615612eca57612ec96130d0565b5b828202905092915050565b6000612ee082612f7d565b9150612eeb83612f7d565b925082821015612efe57612efd6130d0565b5b828203905092915050565b6000612f1482612f5d565b9050919050565b60008115159050919050565b6000819050919050565b60007fffffffff0000000000000000000000000000000000000000000000000000000082169050919050565b600073ffffffffffffffffffffffffffffffffffffffff82169050919050565b6000819050919050565b82818337600083830152505050565b60005b83811015612fb4578082015181840152602081019050612f99565b83811115612fc3576000848401525b50505050565b6000612fd482612f7d565b91506000821415612fe857612fe76130d0565b5b600182039050919050565b6000600282049050600182168061300b57607f821691505b6020821081141561301f5761301e61312e565b5b50919050565b61302e8261318c565b810181811067ffffffffffffffff8211171561304d5761304c61315d565b5b80604052505050565b600061306182612f7d565b91507fffffffffffffffffffffffffffffffffffffffffffffffffffffffffffffffff821415613094576130936130d0565b5b600182019050919050565b60006130aa82612f7d565b91506130b583612f7d565b9250826130c5576130c46130ff565b5b828206905092915050565b7f4e487b7100000000000000000000000000000000000000000000000000000000600052601160045260246000fd5b7f4e487b7100000000000000000000000000000000000000000000000000000000600052601260045260246000fd5b7f4e487b7100000000000000000000000000000000000000000000000000000000600052602260045260246000fd5b7f4e487b7100000000000000000000000000000000000000000000000000000000600052604160045260246000fd5b6000601f19601f8301169050919050565b7f537472696e67733a20686578206c656e67746820696e73756666696369656e74600082015250565b7f4552433732313a207472616e7366657220746f206e6f6e20455243373231526560008201527f63656976657220696d706c656d656e7465720000000000000000000000000000602082015250565b7f4552433732313a207472616e736665722066726f6d20696e636f72726563742060008201527f6f776e6572000000000000000000000000000000000000000000000000000000602082015250565b7f4552433732313a20746f6b656e20616c7265616479206d696e74656400000000600082015250565b7f4552433732313a207472616e7366657220746f20746865207a65726f2061646460008201527f7265737300000000000000000000000000000000000000000000000000000000602082015250565b7f4552433732313a20617070726f766520746f2063616c6c657200000000000000600082015250565b7f4552433732313a206f70657261746f7220717565727920666f72206e6f6e657860008201527f697374656e7420746f6b656e0000000000000000000000000000000000000000602082015250565b7f4552433732313a20617070726f76652063616c6c6572206973206e6f74206f7760008201527f6e6572206e6f7220617070726f76656420666f7220616c6c0000000000000000602082015250565b7f4552433732313a2062616c616e636520717565727920666f7220746865207a6560008201527f726f206164647265737300000000000000000000000000000000000000000000602082015250565b7f4552433732313a206f776e657220717565727920666f72206e6f6e657869737460008201527f656e7420746f6b656e0000000000000000000000000000000000000000000000602082015250565b7f4552433732313a206d696e7420746f20746865207a65726f2061646472657373600082015250565b7f4552433732313a20617070726f76656420717565727920666f72206e6f6e657860008201527f697374656e7420746f6b656e0000000000000000000000000000000000000000602082015250565b7f4552433732314d657461646174613a2055524920717565727920666f72206e6f60008201527f6e6578697374656e7420746f6b656e0000000000000000000000000000000000602082015250565b7f4552433732313a20617070726f76616c20746f2063757272656e74206f776e6560008201527f7200000000000000000000000000000000000000000000000000000000000000602082015250565b7f4552433732313a207472616e736665722063616c6c6572206973206e6f74206f60008201527f776e6572206e6f7220617070726f766564000000000000000000000000000000602082015250565b7f416363657373436f6e74726f6c3a206163636f756e7420000000000000000000600082015250565b7f4f6d69692043657274696669636174653a206163636f756e7420646f6573206e60008201527f6f742068617665206d696e74657220726f6c6500000000000000000000000000602082015250565b7f206973206d697373696e6720726f6c6520000000000000000000000000000000600082015250565b7f416363657373436f6e74726f6c3a2063616e206f6e6c792072656e6f756e636560008201527f20726f6c657320666f722073656c660000000000000000000000000000000000602082015250565b61369f81612f09565b81146136aa57600080fd5b50565b6136b681612f1b565b81146136c157600080fd5b50565b6136cd81612f27565b81146136d857600080fd5b50565b6136e481612f31565b81146136ef57600080fd5b50565b6136fb81612f7d565b811461370657600080fd5b5056fea2646970667358221220ae1e9eb2a01a9e85ce65d749f9b9609dcf8d96bbc8e1e4dde23300c5b49d9fe464736f6c63430008010033",
  "linkReferences": {},
  "deployedLinkReferences": {}
}