{
  "_format": "hh-sol-artifact-1",
  "contractName": "OmiiCertificate",
  "sourceName": "contracts/OmiiCertificate.sol",
  "abi": [
    {
      "inputs": [],
      "stateMutability": "nonpayable",
      "type": "constructor"
    },
    {
      "anonymous": false,
      "inputs": [
        {
          "indexed": true,
          "internalType": "address",
          "name": "owner",
          "type": "address"
        },
        {
          "indexed": true,
          "internalType": "address",
          "name": "approved",
          "type": "address"
        },
        {
          "indexed": true,
          "internalType": "uint256",
          "name": "tokenId",
          "type": "uint256"
        }
      ],
      "name": "Approval",
      "type": "event"
    },
    {
      "anonymous": false,
      "inputs": [
        {
          "indexed": true,
          "internalType": "address",
          "name": "owner",
          "type": "address"
        },
        {
          "indexed": true,
          "internalType": "address",
          "name": "operator",
          "type": "address"
        },
        {
          "indexed": false,
          "internalType": "bool",
          "name": "approved",
          "type": "bool"
        }
      ],
      "name": "ApprovalForAll",
      "type": "event"
    },
    {
      "anonymous": false,
      "inputs": [
        {
          "indexed": true,
          "internalType": "bytes32",
          "name": "role",
          "type": "bytes32"
        },
        {
          "indexed": true,
          "internalType": "bytes32",
          "name": "previousAdminRole",
          "type": "bytes32"
        },
        {
          "indexed": true,
          "internalType": "bytes32",
          "name": "newAdminRole",
          "type": "bytes32"
        }
      ],
      "name": "RoleAdminChanged",
      "type": "event"
    },
    {
      "anonymous": false,
      "inputs": [
        {
          "indexed": true,
          "internalType": "bytes32",
          "name": "role",
          "type": "bytes32"
        },
        {
          "indexed": true,
          "internalType": "address",
          "name": "account",
          "type": "address"
        },
        {
          "indexed": true,
          "internalType": "address",
          "name": "sender",
          "type": "address"
        }
      ],
      "name": "RoleGranted",
      "type": "event"
    },
    {
      "anonymous": false,
      "inputs": [
        {
          "indexed": true,
          "internalType": "bytes32",
          "name": "role",
          "type": "bytes32"
        },
        {
          "indexed": true,
          "internalType": "address",
          "name": "account",
          "type": "address"
        },
        {
          "indexed": true,
          "internalType": "address",
          "name": "sender",
          "type": "address"
        }
      ],
      "name": "RoleRevoked",
      "type": "event"
    },
    {
      "anonymous": false,
      "inputs": [
        {
          "indexed": true,
          "internalType": "address",
          "name": "from",
          "type": "address"
        },
        {
          "indexed": true,
          "internalType": "address",
          "name": "to",
          "type": "address"
        },
        {
          "indexed": true,
          "internalType": "uint256",
          "name": "tokenId",
          "type": "uint256"
        }
      ],
      "name": "Transfer",
      "type": "event"
    },
    {
      "inputs": [],
      "name": "DEFAULT_ADMIN_ROLE",
      "outputs": [
        {
          "internalType": "bytes32",
          "name": "",
          "type": "bytes32"
        }
      ],
      "stateMutability": "view",
      "type": "function"
    },
    {
      "inputs": [],
      "name": "MINTER_ROLE",
      "outputs": [
        {
          "internalType": "bytes32",
          "name": "",
          "type": "bytes32"
        }
      ],
      "stateMutability": "view",
      "type": "function"
    },
    {
      "inputs": [
        {
          "internalType": "address",
          "name": "to",
          "type": "address"
        },
        {
          "internalType": "uint256",
          "name": "tokenId",
          "type": "uint256"
        }
      ],
      "name": "approve",
      "outputs": [],
      "stateMutability": "nonpayable",
      "type": "function"
    },
    {
      "inputs": [
        {
          "internalType": "address",
          "name": "to",
          "type": "address"
        },
        {
          "internalType": "uint256",
          "name": "projectId",
          "type": "uint256"
        },
        {
          "internalType": "uint256",
          "name": "projectTokenId",
          "type": "uint256"
        },
        {
          "internalType": "uint256",
          "name": "vintageTokenId",
          "type": "uint256"
        },
        {
          "internalType": "string",
          "name": "uri",
          "type": "string"
        }
      ],
      "name": "awardCertificate",
      "outputs": [
        {
          "internalType": "uint256",
          "name": "",
          "type": "uint256"
        }
      ],
      "stateMutability": "nonpayable",
      "type": "function"
    },
    {
      "inputs": [
        {
          "internalType": "address",
          "name": "owner",
          "type": "address"
        }
      ],
      "name": "balanceOf",
      "outputs": [
        {
          "internalType": "uint256",
          "name": "",
          "type": "uint256"
        }
      ],
      "stateMutability": "view",
      "type": "function"
    },
    {
      "inputs": [
        {
          "internalType": "uint256",
          "name": "",
          "type": "uint256"
        }
      ],
      "name": "certificateData",
      "outputs": [
        {
          "internalType": "uint256",
          "name": "projectId",
          "type": "uint256"
        },
        {
          "internalType": "uint256",
          "name": "projectTokenId",
          "type": "uint256"
        },
        {
          "internalType": "uint256",
          "name": "vintageTokenId",
          "type": "uint256"
        },
        {
          "internalType": "string",
          "name": "uri",
          "type": "string"
        }
      ],
      "stateMutability": "view",
      "type": "function"
    },
    {
      "inputs": [
        {
          "internalType": "uint256",
          "name": "tokenId",
          "type": "uint256"
        }
      ],
      "name": "getApproved",
      "outputs": [
        {
          "internalType": "address",
          "name": "",
          "type": "address"
        }
      ],
      "stateMutability": "view",
      "type": "function"
    },
    {
      "inputs": [
        {
          "internalType": "bytes32",
          "name": "role",
          "type": "bytes32"
        }
      ],
      "name": "getRoleAdmin",
      "outputs": [
        {
          "internalType": "bytes32",
          "name": "",
          "type": "bytes32"
        }
      ],
      "stateMutability": "view",
      "type": "function"
    },
    {
      "inputs": [
        {
          "internalType": "bytes32",
          "name": "role",
          "type": "bytes32"
        },
        {
          "internalType": "address",
          "name": "account",
          "type": "address"
        }
      ],
      "name": "grantRole",
      "outputs": [],
      "stateMutability": "nonpayable",
      "type": "function"
    },
    {
      "inputs": [
        {
          "internalType": "bytes32",
          "name": "role",
          "type": "bytes32"
        },
        {
          "internalType": "address",
          "name": "account",
          "type": "address"
        }
      ],
      "name": "hasRole",
      "outputs": [
        {
          "internalType": "bool",
          "name": "",
          "type": "bool"
        }
      ],
      "stateMutability": "view",
      "type": "function"
    },
    {
      "inputs": [
        {
          "internalType": "address",
          "name": "owner",
          "type": "address"
        },
        {
          "internalType": "address",
          "name": "operator",
          "type": "address"
        }
      ],
      "name": "isApprovedForAll",
      "outputs": [
        {
          "internalType": "bool",
          "name": "",
          "type": "bool"
        }
      ],
      "stateMutability": "view",
      "type": "function"
    },
    {
      "inputs": [],
      "name": "name",
      "outputs": [
        {
          "internalType": "string",
          "name": "",
          "type": "string"
        }
      ],
      "stateMutability": "view",
      "type": "function"
    },
    {
      "inputs": [
        {
          "internalType": "uint256",
          "name": "tokenId",
          "type": "uint256"
        }
      ],
      "name": "ownerOf",
      "outputs": [
        {
          "internalType": "address",
          "name": "",
          "type": "address"
        }
      ],
      "stateMutability": "view",
      "type": "function"
    },
    {
      "inputs": [
        {
          "internalType": "bytes32",
          "name": "role",
          "type": "bytes32"
        },
        {
          "internalType": "address",
          "name": "account",
          "type": "address"
        }
      ],
      "name": "renounceRole",
      "outputs": [],
      "stateMutability": "nonpayable",
      "type": "function"
    },
    {
      "inputs": [
        {
          "internalType": "bytes32",
          "name": "role",
          "type": "bytes32"
        },
        {
          "internalType": "address",
          "name": "account",
          "type": "address"
        }
      ],
      "name": "revokeRole",
      "outputs": [],
      "stateMutability": "nonpayable",
      "type": "function"
    },
    {
      "inputs": [
        {
          "internalType": "address",
          "name": "from",
          "type": "address"
        },
        {
          "internalType": "address",
          "name": "to",
          "type": "address"
        },
        {
          "internalType": "uint256",
          "name": "tokenId",
          "type": "uint256"
        }
      ],
      "name": "safeTransferFrom",
      "outputs": [],
      "stateMutability": "nonpayable",
      "type": "function"
    },
    {
      "inputs": [
        {
          "internalType": "address",
          "name": "from",
          "type": "address"
        },
        {
          "internalType": "address",
          "name": "to",
          "type": "address"
        },
        {
          "internalType": "uint256",
          "name": "tokenId",
          "type": "uint256"
        },
        {
          "internalType": "bytes",
          "name": "_data",
          "type": "bytes"
        }
      ],
      "name": "safeTransferFrom",
      "outputs": [],
      "stateMutability": "nonpayable",
      "type": "function"
    },
    {
      "inputs": [
        {
          "internalType": "address",
          "name": "operator",
          "type": "address"
        },
        {
          "internalType": "bool",
          "name": "approved",
          "type": "bool"
        }
      ],
      "name": "setApprovalForAll",
      "outputs": [],
      "stateMutability": "nonpayable",
      "type": "function"
    },
    {
      "inputs": [
        {
          "internalType": "bytes4",
          "name": "interfaceId",
          "type": "bytes4"
        }
      ],
      "name": "supportsInterface",
      "outputs": [
        {
          "internalType": "bool",
          "name": "",
          "type": "bool"
        }
      ],
      "stateMutability": "view",
      "type": "function"
    },
    {
      "inputs": [],
      "name": "symbol",
      "outputs": [
        {
          "internalType": "string",
          "name": "",
          "type": "string"
        }
      ],
      "stateMutability": "view",
      "type": "function"
    },
    {
      "inputs": [
        {
          "internalType": "uint256",
          "name": "tokenId",
          "type": "uint256"
        }
      ],
      "name": "tokenURI",
      "outputs": [
        {
          "internalType": "string",
          "name": "",
          "type": "string"
        }
      ],
      "stateMutability": "view",
      "type": "function"
    },
    {
      "inputs": [
        {
          "internalType": "address",
          "name": "from",
          "type": "address"
        },
        {
          "internalType": "address",
          "name": "to",
          "type": "address"
        },
        {
          "internalType": "uint256",
          "name": "tokenId",
          "type": "uint256"
        }
      ],
      "name": "transferFrom",
      "outputs": [],
      "stateMutability": "nonpayable",
      "type": "function"
    }
  ],
  "bytecode": "0x60806040523480156200001157600080fd5b506040518060400160405280601081526020017f4f6d6969204365727469666963617465000000000000000000000000000000008152506040518060400160405280600481526020017f4f4d4949000000000000000000000000000000000000000000000000000000008152508160009080519060200190620000969291906200024f565b508060019080519060200190620000af9291906200024f565b505050620000e47f9f2df0fed2c77648de5860a4cc508cd0818c85b8b8a1ab4ceeef8d981c8956a633620000ea60201b60201c565b62000364565b620000fc8282620001dc60201b60201c565b620001d85760016006600084815260200190815260200160002060000160008373ffffffffffffffffffffffffffffffffffffffff1673ffffffffffffffffffffffffffffffffffffffff16815260200190815260200160002060006101000a81548160ff0219169083151502179055506200017d6200024760201b60201c565b73ffffffffffffffffffffffffffffffffffffffff168173ffffffffffffffffffffffffffffffffffffffff16837f2f8788117e7eff1d82e926ec794901d17c78024a50270940304540a733656f0d60405160405180910390a45b5050565b60006006600084815260200190815260200160002060000160008373ffffffffffffffffffffffffffffffffffffffff1673ffffffffffffffffffffffffffffffffffffffff16815260200190815260200160002060009054906101000a900460ff16905092915050565b600033905090565b8280546200025d90620002ff565b90600052602060002090601f016020900481019282620002815760008555620002cd565b82601f106200029c57805160ff1916838001178555620002cd565b82800160010185558215620002cd579182015b82811115620002cc578251825591602001919060010190620002af565b5b509050620002dc9190620002e0565b5090565b5b80821115620002fb576000816000905550600101620002e1565b5090565b600060028204905060018216806200031857607f821691505b602082108114156200032f576200032e62000335565b5b50919050565b7f4e487b7100000000000000000000000000000000000000000000000000000000600052602260045260246000fd5b61376480620003746000396000f3fe608060405234801561001057600080fd5b50600436106101425760003560e01c806370a08231116100b8578063a22cb4651161007c578063a22cb465146103b0578063b88d4fde146103cc578063c87b56dd146103e8578063d539139314610418578063d547741f14610436578063e985e9c51461045257610142565b806370a08231146102e15780638024818a1461031157806391d148541461034457806395d89b4114610374578063a217fddf1461039257610142565b8063248a9ca31161010a578063248a9ca3146101fd5780632f2ff15d1461022d57806336568abe1461024957806342842e0e1461026557806351f15953146102815780636352211e146102b157610142565b806301ffc9a71461014757806306fdde0314610177578063081812fc14610195578063095ea7b3146101c557806323b872dd146101e1575b600080fd5b610161600480360381019061015c91906125b8565b610482565b60405161016e9190612a70565b60405180910390f35b61017f610494565b60405161018c9190612aa6565b60405180910390f35b6101af60048036038101906101aa919061260a565b610526565b6040516101bc9190612a09565b60405180910390f35b6101df60048036038101906101da9190612488565b6105ab565b005b6101fb60048036038101906101f69190612382565b6106c3565b005b61021760048036038101906102129190612553565b610723565b6040516102249190612a8b565b60405180910390f35b6102476004803603810190610242919061257c565b610743565b005b610263600480360381019061025e919061257c565b61076c565b005b61027f600480360381019061027a9190612382565b6107ef565b005b61029b600480360381019061029691906124c4565b61080f565b6040516102a89190612ce8565b60405180910390f35b6102cb60048036038101906102c6919061260a565b610925565b6040516102d89190612a09565b60405180910390f35b6102fb60048036038101906102f6919061231d565b6109d7565b6040516103089190612ce8565b60405180910390f35b61032b6004803603810190610326919061260a565b610a8f565b60405161033b9493929190612d03565b60405180910390f35b61035e6004803603810190610359919061257c565b610b47565b60405161036b9190612a70565b60405180910390f35b61037c610bb2565b6040516103899190612aa6565b60405180910390f35b61039a610c44565b6040516103a79190612a8b565b60405180910390f35b6103ca60048036038101906103c5919061244c565b610c4b565b005b6103e660048036038101906103e191906123d1565b610c61565b005b61040260048036038101906103fd919061260a565b610cc3565b60405161040f9190612aa6565b60405180910390f35b610420610d6a565b60405161042d9190612a8b565b60405180910390f35b610450600480360381019061044b919061257c565b610d8e565b005b61046c60048036038101906104679190612346565b610db7565b6040516104799190612a70565b60405180910390f35b600061048d82610e4b565b9050919050565b6060600080546104a390613018565b80601f01602080910402602001604051908101604052809291908181526020018280546104cf90613018565b801561051c5780601f106104f15761010080835404028352916020019161051c565b820191906000526020600020905b8154815290600101906020018083116104ff57829003601f168201915b5050505050905090565b600061053182610ec5565b610570576040517f08c379a000000000000000000000000000000000000000000000000000000000815260040161056790612c28565b60405180910390fd5b6004600083815260200190815260200160002060009054906101000a900473ffffffffffffffffffffffffffffffffffffffff169050919050565b60006105b682610925565b90508073ffffffffffffffffffffffffffffffffffffffff168373ffffffffffffffffffffffffffffffffffffffff161415610627576040517f08c379a000000000000000000000000000000000000000000000000000000000815260040161061e90612c68565b60405180910390fd5b8073ffffffffffffffffffffffffffffffffffffffff16610646610f31565b73ffffffffffffffffffffffffffffffffffffffff16148061067557506106748161066f610f31565b610db7565b5b6106b4576040517f08c379a00000000000000000000000000000000000000000000000000000000081526004016106ab90612ba8565b60405180910390fd5b6106be8383610f39565b505050565b6106d46106ce610f31565b82610ff2565b610713576040517f08c379a000000000000000000000000000000000000000000000000000000000815260040161070a90612c88565b60405180910390fd5b61071e8383836110d0565b505050565b600060066000838152602001908152602001600020600101549050919050565b61074c82610723565b61075d81610758610f31565b611337565b61076783836113d4565b505050565b610774610f31565b73ffffffffffffffffffffffffffffffffffffffff168173ffffffffffffffffffffffffffffffffffffffff16146107e1576040517f08c379a00000000000000000000000000000000000000000000000000000000081526004016107d890612cc8565b60405180910390fd5b6107eb82826114b5565b5050565b61080a83838360405180602001604052806000815250610c61565b505050565b600061083b7f9f2df0fed2c77648de5860a4cc508cd0818c85b8b8a1ab4ceeef8d981c8956a633610b47565b61087a576040517f08c379a000000000000000000000000000000000000000000000000000000000815260040161087190612ca8565b60405180910390fd5b6108846007611597565b600061089060076115ad565b905061089c87826115bb565b8560086000838152602001908152602001600020600001819055508460086000838152602001908152602001600020600101819055508360086000838152602001908152602001600020600201819055508260086000838152602001908152602001600020600301908051906020019061091792919061212c565b508091505095945050505050565b6000806002600084815260200190815260200160002060009054906101000a900473ffffffffffffffffffffffffffffffffffffffff169050600073ffffffffffffffffffffffffffffffffffffffff168173ffffffffffffffffffffffffffffffffffffffff1614156109ce576040517f08c379a00000000000000000000000000000000000000000000000000000000081526004016109c590612be8565b60405180910390fd5b80915050919050565b60008073ffffffffffffffffffffffffffffffffffffffff168273ffffffffffffffffffffffffffffffffffffffff161415610a48576040517f08c379a0000000000000000000000000000000000000000000000000000000008152600401610a3f90612bc8565b60405180910390fd5b600360008373ffffffffffffffffffffffffffffffffffffffff1673ffffffffffffffffffffffffffffffffffffffff168152602001908152602001600020549050919050565b6008602052806000526040600020600091509050806000015490806001015490806002015490806003018054610ac490613018565b80601f0160208091040260200160405190810160405280929190818152602001828054610af090613018565b8015610b3d5780601f10610b1257610100808354040283529160200191610b3d565b820191906000526020600020905b815481529060010190602001808311610b2057829003601f168201915b5050505050905084565b60006006600084815260200190815260200160002060000160008373ffffffffffffffffffffffffffffffffffffffff1673ffffffffffffffffffffffffffffffffffffffff16815260200190815260200160002060009054906101000a900460ff16905092915050565b606060018054610bc190613018565b80601f0160208091040260200160405190810160405280929190818152602001828054610bed90613018565b8015610c3a5780601f10610c0f57610100808354040283529160200191610c3a565b820191906000526020600020905b815481529060010190602001808311610c1d57829003601f168201915b5050505050905090565b6000801b81565b610c5d610c56610f31565b8383611795565b5050565b610c72610c6c610f31565b83610ff2565b610cb1576040517f08c379a0000000000000000000000000000000000000000000000000000000008152600401610ca890612c88565b60405180910390fd5b610cbd84848484611902565b50505050565b6060610cce82610ec5565b610d0d576040517f08c379a0000000000000000000000000000000000000000000000000000000008152600401610d0490612c48565b60405180910390fd5b6000610d1761195e565b90506000815111610d375760405180602001604052806000815250610d62565b80610d4184611975565b604051602001610d529291906129ab565b6040516020818303038152906040525b915050919050565b7f9f2df0fed2c77648de5860a4cc508cd0818c85b8b8a1ab4ceeef8d981c8956a681565b610d9782610723565b610da881610da3610f31565b611337565b610db283836114b5565b505050565b6000600560008473ffffffffffffffffffffffffffffffffffffffff1673ffffffffffffffffffffffffffffffffffffffff16815260200190815260200160002060008373ffffffffffffffffffffffffffffffffffffffff1673ffffffffffffffffffffffffffffffffffffffff16815260200190815260200160002060009054906101000a900460ff16905092915050565b60007f7965db0b000000000000000000000000000000000000000000000000000000007bffffffffffffffffffffffffffffffffffffffffffffffffffffffff1916827bffffffffffffffffffffffffffffffffffffffffffffffffffffffff19161480610ebe5750610ebd82611b22565b5b9050919050565b60008073ffffffffffffffffffffffffffffffffffffffff166002600084815260200190815260200160002060009054906101000a900473ffffffffffffffffffffffffffffffffffffffff1673ffffffffffffffffffffffffffffffffffffffff1614159050919050565b600033905090565b816004600083815260200190815260200160002060006101000a81548173ffffffffffffffffffffffffffffffffffffffff021916908373ffffffffffffffffffffffffffffffffffffffff160217905550808273ffffffffffffffffffffffffffffffffffffffff16610fac83610925565b73ffffffffffffffffffffffffffffffffffffffff167f8c5be1e5ebec7d5bd14f71427d1e84f3dd0314c0f7b2291e5b200ac8c7c3b92560405160405180910390a45050565b6000610ffd82610ec5565b61103c576040517f08c379a000000000000000000000000000000000000000000000000000000000815260040161103390612b88565b60405180910390fd5b600061104783610925565b90508073ffffffffffffffffffffffffffffffffffffffff168473ffffffffffffffffffffffffffffffffffffffff1614806110b657508373ffffffffffffffffffffffffffffffffffffffff1661109e84610526565b73ffffffffffffffffffffffffffffffffffffffff16145b806110c757506110c68185610db7565b5b91505092915050565b8273ffffffffffffffffffffffffffffffffffffffff166110f082610925565b73ffffffffffffffffffffffffffffffffffffffff1614611146576040517f08c379a000000000000000000000000000000000000000000000000000000000815260040161113d90612b08565b60405180910390fd5b600073ffffffffffffffffffffffffffffffffffffffff168273ffffffffffffffffffffffffffffffffffffffff1614156111b6576040517f08c379a00000000000000000000000000000000000000000000000000000000081526004016111ad90612b48565b60405180910390fd5b6111c1838383611c04565b6111cc600082610f39565b6001600360008573ffffffffffffffffffffffffffffffffffffffff1673ffffffffffffffffffffffffffffffffffffffff168152602001908152602001600020600082825461121c9190612efa565b925050819055506001600360008473ffffffffffffffffffffffffffffffffffffffff1673ffffffffffffffffffffffffffffffffffffffff16815260200190815260200160002060008282546112739190612e19565b92505081905550816002600083815260200190815260200160002060006101000a81548173ffffffffffffffffffffffffffffffffffffffff021916908373ffffffffffffffffffffffffffffffffffffffff160217905550808273ffffffffffffffffffffffffffffffffffffffff168473ffffffffffffffffffffffffffffffffffffffff167fddf252ad1be2c89b69c2b068fc378daa952ba7f163c4a11628f55a4df523b3ef60405160405180910390a4611332838383611c09565b505050565b6113418282610b47565b6113d0576113668173ffffffffffffffffffffffffffffffffffffffff166014611c0e565b6113748360001c6020611c0e565b6040516020016113859291906129cf565b6040516020818303038152906040526040517f08c379a00000000000000000000000000000000000000000000000000000000081526004016113c79190612aa6565b60405180910390fd5b5050565b6113de8282610b47565b6114b15760016006600084815260200190815260200160002060000160008373ffffffffffffffffffffffffffffffffffffffff1673ffffffffffffffffffffffffffffffffffffffff16815260200190815260200160002060006101000a81548160ff021916908315150217905550611456610f31565b73ffffffffffffffffffffffffffffffffffffffff168173ffffffffffffffffffffffffffffffffffffffff16837f2f8788117e7eff1d82e926ec794901d17c78024a50270940304540a733656f0d60405160405180910390a45b5050565b6114bf8282610b47565b156115935760006006600084815260200190815260200160002060000160008373ffffffffffffffffffffffffffffffffffffffff1673ffffffffffffffffffffffffffffffffffffffff16815260200190815260200160002060006101000a81548160ff021916908315150217905550611538610f31565b73ffffffffffffffffffffffffffffffffffffffff168173ffffffffffffffffffffffffffffffffffffffff16837ff6391f5c32d9c69d2a47ea670b442974b53935d1edc7fd64eb21e047a839171b60405160405180910390a45b5050565b6001816000016000828254019250508190555050565b600081600001549050919050565b600073ffffffffffffffffffffffffffffffffffffffff168273ffffffffffffffffffffffffffffffffffffffff16141561162b576040517f08c379a000000000000000000000000000000000000000000000000000000000815260040161162290612c08565b60405180910390fd5b61163481610ec5565b15611674576040517f08c379a000000000000000000000000000000000000000000000000000000000815260040161166b90612b28565b60405180910390fd5b61168060008383611c04565b6001600360008473ffffffffffffffffffffffffffffffffffffffff1673ffffffffffffffffffffffffffffffffffffffff16815260200190815260200160002060008282546116d09190612e19565b92505081905550816002600083815260200190815260200160002060006101000a81548173ffffffffffffffffffffffffffffffffffffffff021916908373ffffffffffffffffffffffffffffffffffffffff160217905550808273ffffffffffffffffffffffffffffffffffffffff16600073ffffffffffffffffffffffffffffffffffffffff167fddf252ad1be2c89b69c2b068fc378daa952ba7f163c4a11628f55a4df523b3ef60405160405180910390a461179160008383611c09565b5050565b8173ffffffffffffffffffffffffffffffffffffffff168373ffffffffffffffffffffffffffffffffffffffff161415611804576040517f08c379a00000000000000000000000000000000000000000000000000000000081526004016117fb90612b68565b60405180910390fd5b80600560008573ffffffffffffffffffffffffffffffffffffffff1673ffffffffffffffffffffffffffffffffffffffff16815260200190815260200160002060008473ffffffffffffffffffffffffffffffffffffffff1673ffffffffffffffffffffffffffffffffffffffff16815260200190815260200160002060006101000a81548160ff0219169083151502179055508173ffffffffffffffffffffffffffffffffffffffff168373ffffffffffffffffffffffffffffffffffffffff167f17307eab39ab6107e8899845ad3d59bd9653f200f220920489ca2b5937696c31836040516118f59190612a70565b60405180910390a3505050565b61190d8484846110d0565b61191984848484611f08565b611958576040517f08c379a000000000000000000000000000000000000000000000000000000000815260040161194f90612ae8565b60405180910390fd5b50505050565b606060405180602001604052806000815250905090565b606060008214156119bd576040518060400160405280600181526020017f30000000000000000000000000000000000000000000000000000000000000008152509050611b1d565b600082905060005b600082146119ef5780806119d89061307b565b915050600a826119e89190612e6f565b91506119c5565b60008167ffffffffffffffff811115611a31577f4e487b7100000000000000000000000000000000000000000000000000000000600052604160045260246000fd5b6040519080825280601f01601f191660200182016040528015611a635781602001600182028036833780820191505090505b5090505b60008514611b1657600182611a7c9190612efa565b9150600a85611a8b91906130c4565b6030611a979190612e19565b60f81b818381518110611ad3577f4e487b7100000000000000000000000000000000000000000000000000000000600052603260045260246000fd5b60200101907effffffffffffffffffffffffffffffffffffffffffffffffffffffffffffff1916908160001a905350600a85611b0f9190612e6f565b9450611a67565b8093505050505b919050565b60007f80ac58cd000000000000000000000000000000000000000000000000000000007bffffffffffffffffffffffffffffffffffffffffffffffffffffffff1916827bffffffffffffffffffffffffffffffffffffffffffffffffffffffff19161480611bed57507f5b5e139f000000000000000000000000000000000000000000000000000000007bffffffffffffffffffffffffffffffffffffffffffffffffffffffff1916827bffffffffffffffffffffffffffffffffffffffffffffffffffffffff1916145b80611bfd5750611bfc8261209f565b5b9050919050565b505050565b505050565b606060006002836002611c219190612ea0565b611c2b9190612e19565b67ffffffffffffffff811115611c6a577f4e487b7100000000000000000000000000000000000000000000000000000000600052604160045260246000fd5b6040519080825280601f01601f191660200182016040528015611c9c5781602001600182028036833780820191505090505b5090507f300000000000000000000000000000000000000000000000000000000000000081600081518110611cfa577f4e487b7100000000000000000000000000000000000000000000000000000000600052603260045260246000fd5b60200101907effffffffffffffffffffffffffffffffffffffffffffffffffffffffffffff1916908160001a9053507f780000000000000000000000000000000000000000000000000000000000000081600181518110611d84577f4e487b7100000000000000000000000000000000000000000000000000000000600052603260045260246000fd5b60200101907effffffffffffffffffffffffffffffffffffffffffffffffffffffffffffff1916908160001a90535060006001846002611dc49190612ea0565b611dce9190612e19565b90505b6001811115611eba577f3031323334353637383961626364656600000000000000000000000000000000600f861660108110611e36577f4e487b7100000000000000000000000000000000000000000000000000000000600052603260045260246000fd5b1a60f81b828281518110611e73577f4e487b7100000000000000000000000000000000000000000000000000000000600052603260045260246000fd5b60200101907effffffffffffffffffffffffffffffffffffffffffffffffffffffffffffff1916908160001a905350600485901c945080611eb390612fee565b9050611dd1565b5060008414611efe576040517f08c379a0000000000000000000000000000000000000000000000000000000008152600401611ef590612ac8565b60405180910390fd5b8091505092915050565b6000611f298473ffffffffffffffffffffffffffffffffffffffff16612109565b15612092578373ffffffffffffffffffffffffffffffffffffffff1663150b7a02611f52610f31565b8786866040518563ffffffff1660e01b8152600401611f749493929190612a24565b602060405180830381600087803b158015611f8e57600080fd5b505af1925050508015611fbf57506040513d601f19601f82011682018060405250810190611fbc91906125e1565b60015b612042573d8060008114611fef576040519150601f19603f3d011682016040523d82523d6000602084013e611ff4565b606091505b5060008151141561203a576040517f08c379a000000000000000000000000000000000000000000000000000000000815260040161203190612ae8565b60405180910390fd5b805181602001fd5b63150b7a0260e01b7bffffffffffffffffffffffffffffffffffffffffffffffffffffffff1916817bffffffffffffffffffffffffffffffffffffffffffffffffffffffff191614915050612097565b600190505b949350505050565b60007f01ffc9a7000000000000000000000000000000000000000000000000000000007bffffffffffffffffffffffffffffffffffffffffffffffffffffffff1916827bffffffffffffffffffffffffffffffffffffffffffffffffffffffff1916149050919050565b6000808273ffffffffffffffffffffffffffffffffffffffff163b119050919050565b82805461213890613018565b90600052602060002090601f01602090048101928261215a57600085556121a1565b82601f1061217357805160ff19168380011785556121a1565b828001600101855582156121a1579182015b828111156121a0578251825591602001919060010190612185565b5b5090506121ae91906121b2565b5090565b5b808211156121cb5760008160009055506001016121b3565b5090565b60006121e26121dd84612d74565b612d4f565b9050828152602081018484840111156121fa57600080fd5b612205848285612fac565b509392505050565b600061222061221b84612da5565b612d4f565b90508281526020810184848401111561223857600080fd5b612243848285612fac565b509392505050565b60008135905061225a816136bb565b92915050565b60008135905061226f816136d2565b92915050565b600081359050612284816136e9565b92915050565b60008135905061229981613700565b92915050565b6000815190506122ae81613700565b92915050565b600082601f8301126122c557600080fd5b81356122d58482602086016121cf565b91505092915050565b600082601f8301126122ef57600080fd5b81356122ff84826020860161220d565b91505092915050565b60008135905061231781613717565b92915050565b60006020828403121561232f57600080fd5b600061233d8482850161224b565b91505092915050565b6000806040838503121561235957600080fd5b60006123678582860161224b565b92505060206123788582860161224b565b9150509250929050565b60008060006060848603121561239757600080fd5b60006123a58682870161224b565b93505060206123b68682870161224b565b92505060406123c786828701612308565b9150509250925092565b600080600080608085870312156123e757600080fd5b60006123f58782880161224b565b94505060206124068782880161224b565b935050604061241787828801612308565b925050606085013567ffffffffffffffff81111561243457600080fd5b612440878288016122b4565b91505092959194509250565b6000806040838503121561245f57600080fd5b600061246d8582860161224b565b925050602061247e85828601612260565b9150509250929050565b6000806040838503121561249b57600080fd5b60006124a98582860161224b565b92505060206124ba85828601612308565b9150509250929050565b600080600080600060a086880312156124dc57600080fd5b60006124ea8882890161224b565b95505060206124fb88828901612308565b945050604061250c88828901612308565b935050606061251d88828901612308565b925050608086013567ffffffffffffffff81111561253a57600080fd5b612546888289016122de565b9150509295509295909350565b60006020828403121561256557600080fd5b600061257384828501612275565b91505092915050565b6000806040838503121561258f57600080fd5b600061259d85828601612275565b92505060206125ae8582860161224b565b9150509250929050565b6000602082840312156125ca57600080fd5b60006125d88482850161228a565b91505092915050565b6000602082840312156125f357600080fd5b60006126018482850161229f565b91505092915050565b60006020828403121561261c57600080fd5b600061262a84828501612308565b91505092915050565b61263c81612f2e565b82525050565b61264b81612f40565b82525050565b61265a81612f4c565b82525050565b600061266b82612dd6565b6126758185612dec565b9350612685818560208601612fbb565b61268e816131b1565b840191505092915050565b60006126a482612de1565b6126ae8185612dfd565b93506126be818560208601612fbb565b6126c7816131b1565b840191505092915050565b60006126dd82612de1565b6126e78185612e0e565b93506126f7818560208601612fbb565b80840191505092915050565b6000612710602083612dfd565b915061271b826131c2565b602082019050919050565b6000612733603283612dfd565b915061273e826131eb565b604082019050919050565b6000612756602583612dfd565b91506127618261323a565b604082019050919050565b6000612779601c83612dfd565b915061278482613289565b602082019050919050565b600061279c602483612dfd565b91506127a7826132b2565b604082019050919050565b60006127bf601983612dfd565b91506127ca82613301565b602082019050919050565b60006127e2602c83612dfd565b91506127ed8261332a565b604082019050919050565b6000612805603883612dfd565b915061281082613379565b604082019050919050565b6000612828602a83612dfd565b9150612833826133c8565b604082019050919050565b600061284b602983612dfd565b915061285682613417565b604082019050919050565b600061286e602083612dfd565b915061287982613466565b602082019050919050565b6000612891602c83612dfd565b915061289c8261348f565b604082019050919050565b60006128b4602f83612dfd565b91506128bf826134de565b604082019050919050565b60006128d7602183612dfd565b91506128e28261352d565b604082019050919050565b60006128fa603183612dfd565b91506129058261357c565b604082019050919050565b600061291d601783612e0e565b9150612928826135cb565b601782019050919050565b6000612940603383612dfd565b915061294b826135f4565b604082019050919050565b6000612963601183612e0e565b915061296e82613643565b601182019050919050565b6000612986602f83612dfd565b91506129918261366c565b604082019050919050565b6129a581612fa2565b82525050565b60006129b782856126d2565b91506129c382846126d2565b91508190509392505050565b60006129da82612910565b91506129e682856126d2565b91506129f182612956565b91506129fd82846126d2565b91508190509392505050565b6000602082019050612a1e6000830184612633565b92915050565b6000608082019050612a396000830187612633565b612a466020830186612633565b612a53604083018561299c565b8181036060830152612a658184612660565b905095945050505050565b6000602082019050612a856000830184612642565b92915050565b6000602082019050612aa06000830184612651565b92915050565b60006020820190508181036000830152612ac08184612699565b905092915050565b60006020820190508181036000830152612ae181612703565b9050919050565b60006020820190508181036000830152612b0181612726565b9050919050565b60006020820190508181036000830152612b2181612749565b9050919050565b60006020820190508181036000830152612b418161276c565b9050919050565b60006020820190508181036000830152612b618161278f565b9050919050565b60006020820190508181036000830152612b81816127b2565b9050919050565b60006020820190508181036000830152612ba1816127d5565b9050919050565b60006020820190508181036000830152612bc1816127f8565b9050919050565b60006020820190508181036000830152612be18161281b565b9050919050565b60006020820190508181036000830152612c018161283e565b9050919050565b60006020820190508181036000830152612c2181612861565b9050919050565b60006020820190508181036000830152612c4181612884565b9050919050565b60006020820190508181036000830152612c61816128a7565b9050919050565b60006020820190508181036000830152612c81816128ca565b9050919050565b60006020820190508181036000830152612ca1816128ed565b9050919050565b60006020820190508181036000830152612cc181612933565b9050919050565b60006020820190508181036000830152612ce181612979565b9050919050565b6000602082019050612cfd600083018461299c565b92915050565b6000608082019050612d18600083018761299c565b612d25602083018661299c565b612d32604083018561299c565b8181036060830152612d448184612699565b905095945050505050565b6000612d59612d6a565b9050612d65828261304a565b919050565b6000604051905090565b600067ffffffffffffffff821115612d8f57612d8e613182565b5b612d98826131b1565b9050602081019050919050565b600067ffffffffffffffff821115612dc057612dbf613182565b5b612dc9826131b1565b9050602081019050919050565b600081519050919050565b600081519050919050565b600082825260208201905092915050565b600082825260208201905092915050565b600081905092915050565b6000612e2482612fa2565b9150612e2f83612fa2565b9250827fffffffffffffffffffffffffffffffffffffffffffffffffffffffffffffffff03821115612e6457612e636130f5565b5b828201905092915050565b6000612e7a82612fa2565b9150612e8583612fa2565b925082612e9557612e94613124565b5b828204905092915050565b6000612eab82612fa2565b9150612eb683612fa2565b9250817fffffffffffffffffffffffffffffffffffffffffffffffffffffffffffffffff0483118215151615612eef57612eee6130f5565b5b828202905092915050565b6000612f0582612fa2565b9150612f1083612fa2565b925082821015612f2357612f226130f5565b5b828203905092915050565b6000612f3982612f82565b9050919050565b60008115159050919050565b6000819050919050565b60007fffffffff0000000000000000000000000000000000000000000000000000000082169050919050565b600073ffffffffffffffffffffffffffffffffffffffff82169050919050565b6000819050919050565b82818337600083830152505050565b60005b83811015612fd9578082015181840152602081019050612fbe565b83811115612fe8576000848401525b50505050565b6000612ff982612fa2565b9150600082141561300d5761300c6130f5565b5b600182039050919050565b6000600282049050600182168061303057607f821691505b6020821081141561304457613043613153565b5b50919050565b613053826131b1565b810181811067ffffffffffffffff8211171561307257613071613182565b5b80604052505050565b600061308682612fa2565b91507fffffffffffffffffffffffffffffffffffffffffffffffffffffffffffffffff8214156130b9576130b86130f5565b5b600182019050919050565b60006130cf82612fa2565b91506130da83612fa2565b9250826130ea576130e9613124565b5b828206905092915050565b7f4e487b7100000000000000000000000000000000000000000000000000000000600052601160045260246000fd5b7f4e487b7100000000000000000000000000000000000000000000000000000000600052601260045260246000fd5b7f4e487b7100000000000000000000000000000000000000000000000000000000600052602260045260246000fd5b7f4e487b7100000000000000000000000000000000000000000000000000000000600052604160045260246000fd5b6000601f19601f8301169050919050565b7f537472696e67733a20686578206c656e67746820696e73756666696369656e74600082015250565b7f4552433732313a207472616e7366657220746f206e6f6e20455243373231526560008201527f63656976657220696d706c656d656e7465720000000000000000000000000000602082015250565b7f4552433732313a207472616e736665722066726f6d20696e636f72726563742060008201527f6f776e6572000000000000000000000000000000000000000000000000000000602082015250565b7f4552433732313a20746f6b656e20616c7265616479206d696e74656400000000600082015250565b7f4552433732313a207472616e7366657220746f20746865207a65726f2061646460008201527f7265737300000000000000000000000000000000000000000000000000000000602082015250565b7f4552433732313a20617070726f766520746f2063616c6c657200000000000000600082015250565b7f4552433732313a206f70657261746f7220717565727920666f72206e6f6e657860008201527f697374656e7420746f6b656e0000000000000000000000000000000000000000602082015250565b7f4552433732313a20617070726f76652063616c6c6572206973206e6f74206f7760008201527f6e6572206e6f7220617070726f76656420666f7220616c6c0000000000000000602082015250565b7f4552433732313a2062616c616e636520717565727920666f7220746865207a6560008201527f726f206164647265737300000000000000000000000000000000000000000000602082015250565b7f4552433732313a206f776e657220717565727920666f72206e6f6e657869737460008201527f656e7420746f6b656e0000000000000000000000000000000000000000000000602082015250565b7f4552433732313a206d696e7420746f20746865207a65726f2061646472657373600082015250565b7f4552433732313a20617070726f76656420717565727920666f72206e6f6e657860008201527f697374656e7420746f6b656e0000000000000000000000000000000000000000602082015250565b7f4552433732314d657461646174613a2055524920717565727920666f72206e6f60008201527f6e6578697374656e7420746f6b656e0000000000000000000000000000000000602082015250565b7f4552433732313a20617070726f76616c20746f2063757272656e74206f776e6560008201527f7200000000000000000000000000000000000000000000000000000000000000602082015250565b7f4552433732313a207472616e736665722063616c6c6572206973206e6f74206f60008201527f776e6572206e6f7220617070726f766564000000000000000000000000000000602082015250565b7f416363657373436f6e74726f6c3a206163636f756e7420000000000000000000600082015250565b7f4f6d69692043657274696669636174653a206163636f756e7420646f6573206e60008201527f6f742068617665206d696e74657220726f6c6500000000000000000000000000602082015250565b7f206973206d697373696e6720726f6c6520000000000000000000000000000000600082015250565b7f416363657373436f6e74726f6c3a2063616e206f6e6c792072656e6f756e636560008201527f20726f6c657320666f722073656c660000000000000000000000000000000000602082015250565b6136c481612f2e565b81146136cf57600080fd5b50565b6136db81612f40565b81146136e657600080fd5b50565b6136f281612f4c565b81146136fd57600080fd5b50565b61370981612f56565b811461371457600080fd5b50565b61372081612fa2565b811461372b57600080fd5b5056fea2646970667358221220f3a337e6563a2269750d175bb31d73ba451ffc7021d57126d6b2f5a26c841c5e64736f6c63430008010033",
  "linkReferences": {},
  "deployedLinkReferences": {}
}